{
  "contractName": "HelloWorld",
  "abi": [
    {
      "constant": true,
      "inputs": [],
      "name": "print",
      "outputs": [
        {
          "name": "",
          "type": "string"
        }
      ],
      "payable": false,
      "stateMutability": "pure",
      "type": "function"
    }
  ],
  "bytecode": "0x6060604052341561000f57600080fd5b6101578061001e6000396000f300606060405260043610610041576000357c0100000000000000000000000000000000000000000000000000000000900463ffffffff16806313bdfacd14610046575b600080fd5b341561005157600080fd5b6100596100d4565b6040518080602001828103825283818151815260200191508051906020019080838360005b8381101561009957808201518184015260208101905061007e565b50505050905090810190601f1680156100c65780820380516001836020036101000a031916815260200191505b509250505060405180910390f35b6100dc610117565b6040805190810160405280600c81526020017f48656c6c6f576f726c6420210000000000000000000000000000000000000000815250905090565b6020604051908101604052806000815250905600a165627a7a72305820f933bedc5e50295bf6e43231eca526b53a71748a7c568aaad48d57f5437d7e0a0029",
  "source": "pragma solidity ^0.4.17;\n\ncontract HelloWorld {\n\n  function print() public pure returns (string) {\n    return (\"HelloWorld !\");\n  }\n}\n",
  "sourcePath": "/private/var/root/Desktop/MyProject/contracts/HelloWorld.sol",
  "compiler": {
    "name": "solc",
    "version": "0.4.19+commit.c4cbbb05.Emscripten.clang"
  },
  "schemaVersion": "2.0.0",
  "updatedAt": "2018-03-19T12:20:28.128Z"
}